{
  "abi": [
    {
      "inputs": [
        {
          "internalType": "uint256",
          "name": "_amount",
          "type": "uint256"
        },
        {
          "internalType": "address",
          "name": "_from",
          "type": "address"
        },
        {
          "internalType": "address",
          "name": "_to",
          "type": "address"
        },
        {
          "internalType": "string",
          "name": "_messageId",
          "type": "string"
        },
        {
          "internalType": "bool",
          "name": "_paid",
          "type": "bool"
        }
      ],
      "name": "addPayment",
      "outputs": [],
      "stateMutability": "nonpayable",
      "type": "function"
    },
    {
      "inputs": [],
      "name": "getTransactions",
      "outputs": [
        {
          "components": [
            {
              "internalType": "uint256",
              "name": "id",
              "type": "uint256"
            },
            {
              "internalType": "address",
              "name": "from",
              "type": "address"
            },
            {
              "internalType": "address",
              "name": "to",
              "type": "address"
            },
            {
              "internalType": "uint256",
              "name": "amount",
              "type": "uint256"
            },
            {
              "internalType": "string",
              "name": "messageId",
              "type": "string"
            },
            {
              "internalType": "bool",
              "name": "paid",
              "type": "bool"
            },
            {
              "internalType": "bool",
              "name": "rejected",
              "type": "bool"
            },
            {
              "internalType": "bool",
              "name": "canceled",
              "type": "bool"
            }
          ],
          "internalType": "struct W3nPay.Payment[]",
          "name": "",
          "type": "tuple[]"
        }
      ],
      "stateMutability": "view",
      "type": "function"
    },
    {
      "inputs": [
        {
          "internalType": "address",
          "name": "_token",
          "type": "address"
        },
        {
          "internalType": "uint256",
          "name": "_amount",
          "type": "uint256"
        },
        {
          "internalType": "address",
          "name": "_account",
          "type": "address"
        },
        {
          "internalType": "string",
          "name": "_messageId",
          "type": "string"
        },
        {
          "internalType": "uint256",
          "name": "_id",
          "type": "uint256"
        }
      ],
      "name": "transfer",
      "outputs": [
        {
          "internalType": "bool",
          "name": "",
          "type": "bool"
        }
      ],
      "stateMutability": "nonpayable",
      "type": "function"
    },
    {
      "inputs": [
        {
          "internalType": "uint256",
          "name": "_id",
          "type": "uint256"
        },
        {
          "internalType": "bool",
          "name": "_paid",
          "type": "bool"
        },
        {
          "internalType": "bool",
          "name": "_rejected",
          "type": "bool"
        },
        {
          "internalType": "bool",
          "name": "_canceled",
          "type": "bool"
        }
      ],
      "name": "updateRequestStatus",
      "outputs": [],
      "stateMutability": "nonpayable",
      "type": "function"
    }
  ],
  "bytecode": {
    "object": "0x608060405234801561001057600080fd5b50610ba2806100206000396000f3fe608060405234801561001057600080fd5b506004361061004c5760003560e01c80631c6996bb146100515780633d65b7271461006657806383920e901461008e578063a27c660f146100a3575b600080fd5b61006461005f36600461076f565b6100b6565b005b6100796100743660046107ec565b6101da565b60405190151581526020015b60405180910390f35b610096610289565b60405161008591906108a2565b6100646100b1366004610973565b6103f8565b6000805490806100c5836109c6565b909155505060408051610100810182526000805482526001600160a01b038088166020808501918252888316858701908152606086018c8152608087018a815289151560a089015260c0880187905260e0880187905233875260018085529887208054808b018255908852939096208751600690940201928355925196820180549785166001600160a01b03199889161790555160028201805491909416961695909517909155516003840155519091829160048201906101869082610a72565b5060a08201516005909101805460c084015160e0909401511515620100000262ff0000199415156101000261ff00199415159490941661ffff19909216919091179290921792909216179055505050505050565b600081156101f5576101f08260016000806103f8565b610203565b6102038533868660016100b6565b6040516323b872dd60e01b81523360048201526001600160a01b038581166024830152604482018790528716906323b872dd906064016020604051808303816000875af1158015610258573d6000803e3d6000fd5b505050506040513d601f19601f8201168201806040525081019061027c9190610b32565b5060019695505050505050565b336000908152600160209081526040808320805482518185028101850190935280835260609492939192909184015b828210156103ef5760008481526020908190206040805161010081018252600686029092018054835260018101546001600160a01b039081169484019490945260028101549093169082015260038201546060820152600482018054919291608084019190610326906109ed565b80601f0160208091040260200160405190810160405280929190818152602001828054610352906109ed565b801561039f5780601f106103745761010080835404028352916020019161039f565b820191906000526020600020905b81548152906001019060200180831161038257829003601f168201915b50505091835250506005919091015460ff808216151560208085019190915261010083048216151560408501526201000090920416151560609092019190915290825260019290920191016102b8565b50505050905090565b33600090815260016020908152604080832080548251818502810185019093528083529192909190849084015b8282101561055c5760008481526020908190206040805161010081018252600686029092018054835260018101546001600160a01b039081169484019490945260028101549093169082015260038201546060820152600482018054919291608084019190610493906109ed565b80601f01602080910402602001604051908101604052809291908181526020018280546104bf906109ed565b801561050c5780601f106104e15761010080835404028352916020019161050c565b820191906000526020600020905b8154815290600101906020018083116104ef57829003601f168201915b50505091835250506005919091015460ff80821615156020808501919091526101008304821615156040850152620100009092041615156060909201919091529082526001929092019101610425565b50505050905060005b8151811015610697578582828151811061058157610581610b56565b60200260200101516000015103610685573360009081526001602052604090208054869190839081106105b6576105b6610b56565b60009182526020808320600692909202909101600501805460ff1916931515939093179092553381526001909152604090208054859190839081106105fd576105fd610b56565b906000526020600020906006020160050160016101000a81548160ff0219169083151502179055508260016000336001600160a01b03166001600160a01b03168152602001908152602001600020828154811061065c5761065c610b56565b906000526020600020906006020160050160026101000a81548160ff0219169083151502179055505b8061068f816109c6565b915050610565565b505050505050565b80356001600160a01b03811681146106b657600080fd5b919050565b634e487b7160e01b600052604160045260246000fd5b600082601f8301126106e257600080fd5b813567ffffffffffffffff808211156106fd576106fd6106bb565b604051601f8301601f19908116603f01168101908282118183101715610725576107256106bb565b8160405283815286602085880101111561073e57600080fd5b836020870160208301376000602085830101528094505050505092915050565b801515811461076c57600080fd5b50565b600080600080600060a0868803121561078757600080fd5b853594506107976020870161069f565b93506107a56040870161069f565b9250606086013567ffffffffffffffff8111156107c157600080fd5b6107cd888289016106d1565b92505060808601356107de8161075e565b809150509295509295909350565b600080600080600060a0868803121561080457600080fd5b61080d8661069f565b9450602086013593506108226040870161069f565b9250606086013567ffffffffffffffff81111561083e57600080fd5b61084a888289016106d1565b95989497509295608001359392505050565b6000815180845260005b8181101561088257602081850181015186830182015201610866565b506000602082860101526020601f19601f83011685010191505092915050565b60006020808301818452808551808352604092508286019150828160051b87010184880160005b8381101561096557888303603f19018552815180518452878101516001600160a01b03908116898601528782015116878501526060808201519085015260808082015161010082870181905291906109238388018261085c565b9250505060a08083015161093a8288018215159052565b505060c08281015115159086015260e0918201511515919094015293860193908601906001016108c9565b509098975050505050505050565b6000806000806080858703121561098957600080fd5b84359350602085013561099b8161075e565b925060408501356109ab8161075e565b915060608501356109bb8161075e565b939692955090935050565b6000600182016109e657634e487b7160e01b600052601160045260246000fd5b5060010190565b600181811c90821680610a0157607f821691505b602082108103610a2157634e487b7160e01b600052602260045260246000fd5b50919050565b601f821115610a6d57600081815260208120601f850160051c81016020861015610a4e5750805b601f850160051c820191505b8181101561069757828155600101610a5a565b505050565b815167ffffffffffffffff811115610a8c57610a8c6106bb565b610aa081610a9a84546109ed565b84610a27565b602080601f831160018114610ad55760008415610abd5750858301515b600019600386901b1c1916600185901b178555610697565b600085815260208120601f198616915b82811015610b0457888601518255948401946001909101908401610ae5565b5085821015610b225787850151600019600388901b60f8161c191681555b5050505050600190811b01905550565b600060208284031215610b4457600080fd5b8151610b4f8161075e565b9392505050565b634e487b7160e01b600052603260045260246000fdfea264697066735822122015f08bb19c49c9eefae5ac7049586fc5a24b108849fdb529f7e9d2682cbbde8764736f6c63430008100033",
    "linkReferences": {}
  },
  "methodIdentifiers": {
    "addPayment(uint256,address,address,string,bool)": "1c6996bb",
    "getTransactions()": "83920e90",
    "transfer(address,uint256,address,string,uint256)": "3d65b727",
    "updateRequestStatus(uint256,bool,bool,bool)": "a27c660f"
  },
  "id": 14
}